S000ZSNS01753819APESI01APESI01SHPSEG    0140CIEL      201906180938+0800           3SH                                1                                                                                                                                 CNZSN0201
S502ZSNS01753819APESI01APESI01FFHKHKG06CNZSN02KN          9   FWDEKNE01LTVNO01KN          9   CRAPESI01APESI01            9   CRDEHAM10WWWWW99            9                               9                               9                            CNZSN0201
S521ZSNS01753819APESI01APESI01SHWINTIME IMPORT & EXPORT TRADING    LIMITED OF ZHONGSHAN               NO.23, NAN'AN ROAD, SHIQI,         528422 ZHONGSHAN                                                      528422        CNWINTZHO04   1001987915  CNZSN0201
S521ZSNS01753819APESI01APESI01CNOOO "ALET"                         7-9,KHLEBOZAVODSKIY PROEZD         115230 MOSCOW,RUSSIA                                                                                     115230        RUALETMOS01               CNZSN0201
S521ZSNS01753819APESI01APESI01FWKUEHNE + NAGEL UAB                 A. GOSTAUTO 40B                    01112 VILNIUS LITHUANIA                                                                                  01112         LTKN VNO FS   1001668290  CNZSN0201
S521ZSNS01753819APESI01APESI01CUOOO "ALET"                         7-9,KHLEBOZAVODSKIY PROEZD         115230 MOSCOW,RUSSIA                                                                                     115230        RUALETMOS01               CNZSN0201
S521ZSNS01753819APESI01APESI01FFKUEHNE & NAGEL LTD ZHONGSHAN OFFICE12/F,ROOM 1202-1204 OFFICE BLDG 1, OCEAN PLAZA 28 BOAI RD, EAST DIST  ZHONGSHAN 528400 P.R. CHINA                                           528400        CNKN ZSN FS   1000397871  CNZSN0201
S522ZSNS01753819APESI01APESI011269      2KMC23N0000030000000002160750002040000000204000FOBXIAOLAN                            FCCNXAOLTKLJ201906280000201908130000000000000000LTCN4365026190602400000000000000   000000000000                   NN  S Y3CNZSN0201
S523ZSNS01753819APESI01APESI01001          40HC0072025004000                            N000000000000000000   CNXAOLTKLJ                                   201906282019081300000000            000000000000001000680004N                               CNZSN0201
S523ZSNS01753819APESI01APESI01002          40HC0072025004000                            N000000000000000000   CNXAOLTKLJ                                   201906282019081300000000            000000000000002000680004N                               CNZSN0201
S523ZSNS01753819APESI01APESI01003          40HC0072025004000                            N000000000000000000   CNXAOLTKLJ                                   201906282019081300000000            000000000000003000680004N                               CNZSN0201
S524ZSNS01753819APESI01APESI01001002001                       001                               00000100000040H   007202500000000000000000000000000006800000000000CONTAINER SAID TO CONTAIN ELECTRIC FIREPLACE                                         CNZSN0201
S524ZSNS01753819APESI01APESI01003004                          ROYAL FLAME                       000000000000      000000000000000000000000000000000000000000000000592 CARTONS               HS CODE: 851629                                            CNZSN0201
S524ZSNS01753819APESI01APESI01005006002                       002                               00000100000040H   007202500000000000000000000000000006800000000000CONTAINER SAID TO CONTAIN ELECTRIC FIREPLACE                                         CNZSN0201
S524ZSNS01753819APESI01APESI01007008                          ROYAL FLAME                       000000000000      000000000000000000000000000000000000000000000000513 CARTONS               HS CODE: 851629                                            CNZSN0201
S524ZSNS01753819APESI01APESI01009010003                       003                               00000100000040H   007202500000000000000000000000000006800000000000CONTAINER SAID TO CONTAIN ELECTRIC FIREPLACE                                         CNZSN0201
S524ZSNS01753819APESI01APESI01011012                          ROYAL FLAME                       000000000000      000000000000000000000000000000000000000000000000295 CARTONS               HS CODE: 851629                                            CNZSN0201
S524ZSNS01753819APESI01APESI01013014                                                            000000000000      000000000000000000000000000000000000000000000000ALL MENTIONED CONTAINERS  SHIPPER'S LOAD, COUNT AND                                  CNZSN0201
S524ZSNS01753819APESI01APESI01015000                                                            000000000000      000000000000000000000000000000000000000000000000SEAL                                                                                 CNZSN0201
S528ZSNS01753819APESI01APESI01    FFZSNEETT   ZSN EE / Xt Tang                                    TE 0760-88222805                                        EM xt.tang&kuehne-nagel.com                                                DE                CNZSN0201
S529ZSNS01753819APESI01APESI01FFCT 7910454NCP                         CABN 582983900                                                                                                                                                       000         CNZSN0201
S530ZSNS01753819APESI01APESI01MAERSK COPENHAGEN                  926W                          582983900                     MAEU4FEEDER TT                                           CNNNP                                                          1YCNZSN0201
S531ZSNS01753819APESI01APESI01ZHONGSHAN                          0000000000000000KUEHNE & NAGEL LIMITED             MAERSK COPENHAGEN                SWBFCN000000000000                  000000000000   N                 000000000000   00000000      CNZSN0201
S532ZSNS01753819APESI01APESI01                                   XIAOLAN                            NANSHA NEW PT                      KLAIPEDA                                                              C                                  14     CNZSN0201
S535ZSNS01753819APESI01APESI01                 926W             MAERSK COPENHAGEN                  9525405  SG2012MAEUCNXAO201906280000LTKLJ201908130000CNNNP          000000000000201906180935          N    2019070220190629FEEDER TT                CNZSN0201
S536ZSNS01753819APESI01APESI0120CNNNP201907020000LTKLJ201908130000926W             MAERSK COPENHAGEN                  9525405  SG2012                 FEW2                                              000000000000                                   CNZSN0201
S536ZSNS01753819APESI01APESI0110CNXAO201906280000CNNNP201906290000                 FEEDER TT                                     0000                                                                                                                  CNZSN0201
S586ZSNS01753819APESI01APESI011NYN  YN 067ZSNEE              NN          NNY00    CFAK                 N    NN N                     4365N000006484     0ZSNEETT             582983900        N                                                        CNZSN0201
S590ZSNS01753819APESI01APESI0101602019061809389525405             000003                                                                                          +0800L+0800  CNZSN   N        201906180938201906180938N304365026190602400ZSNEETT   1 CNZSN0201
S599ZSNS01753819APESI01APESI01SHWINTIME IMPORT EXPORT TRADING LIMITED OF ZHONGSHAN                    NO 23  NAN AN ROAD  SHIQI                                                       ZHONGSHAN                          528422         CNWINTZHO04   YCNZSN0201
S599ZSNS01753819APESI01APESI01CNOOO  ALET                                                             7 9 KHLEBOZAVODSKIY PROEZD                                                      MOSCOW                             115230         RUALETMOS01   YCNZSN0201
S599ZSNS01753819APESI01APESI01FWKUEHNE + NAGEL UAB                                                    A. GOSTAUTO 40B                                                                 VILNIUS                            01112          LTKN VNO FS   YCNZSN0201
S599ZSNS01753819APESI01APESI01CUOOO  ALET                                                             7 9 KHLEBOZAVODSKIY PROEZD                                                      MOSCOW                             115230         RUALETMOS01   YCNZSN0201
S599ZSNS01753819APESI01APESI01FFKUEHNE & NAGEL LIMITED                                                ZHONGSHAN OFFICE 12/F,ROOM 1202-   1204 OFFICE BLDG 1,OCEAN PLAZA 28            ZHONGSHAN                          528400         CNKN ZSN FS   YCNZSN0201
